{
  "_format": "hh-sol-artifact-1",
  "contractName": "Calendar",
  "sourceName": "contracts/Calender.sol",
  "abi": [
    {
      "inputs": [],
      "stateMutability": "nonpayable",
      "type": "constructor"
    },
    {
      "inputs": [
        {
          "internalType": "string",
          "name": "title",
          "type": "string"
        },
        {
          "internalType": "uint256",
          "name": "startTime",
          "type": "uint256"
        },
        {
          "internalType": "uint256",
          "name": "endTime",
          "type": "uint256"
        }
      ],
      "name": "createAppointment",
      "outputs": [],
      "stateMutability": "payable",
      "type": "function"
    },
    {
      "inputs": [],
      "name": "getAppointments",
      "outputs": [
        {
          "components": [
            {
              "internalType": "string",
              "name": "title",
              "type": "string"
            },
            {
              "internalType": "address",
              "name": "attendee",
              "type": "address"
            },
            {
              "internalType": "uint256",
              "name": "startTime",
              "type": "uint256"
            },
            {
              "internalType": "uint256",
              "name": "endTime",
              "type": "uint256"
            },
            {
              "internalType": "uint256",
              "name": "amountPaid",
              "type": "uint256"
            }
          ],
          "internalType": "struct Calendar.Appointment[]",
          "name": "",
          "type": "tuple[]"
        }
      ],
      "stateMutability": "view",
      "type": "function"
    },
    {
      "inputs": [],
      "name": "getRate",
      "outputs": [
        {
          "internalType": "uint256",
          "name": "",
          "type": "uint256"
        }
      ],
      "stateMutability": "view",
      "type": "function"
    },
    {
      "inputs": [],
      "name": "owner",
      "outputs": [
        {
          "internalType": "address payable",
          "name": "",
          "type": "address"
        }
      ],
      "stateMutability": "view",
      "type": "function"
    },
    {
      "inputs": [
        {
          "internalType": "uint256",
          "name": "_rate",
          "type": "uint256"
        }
      ],
      "name": "setRate",
      "outputs": [],
      "stateMutability": "nonpayable",
      "type": "function"
    }
  ],
  "bytecode": "0x608060405234801561001057600080fd5b5033600160006101000a81548173ffffffffffffffffffffffffffffffffffffffff021916908373ffffffffffffffffffffffffffffffffffffffff160217905550610d57806100616000396000f3fe60806040526004361061004a5760003560e01c806334fcf4371461004f57806359c35bdf14610078578063679aefce146100945780638da5cb5b146100bf57806396b80d08146100ea575b600080fd5b34801561005b57600080fd5b5061007660048036038101906100719190610747565b610115565b005b610092600480360381019061008d91906106e0565b6101af565b005b3480156100a057600080fd5b506100a96103e7565b6040516100b69190610a22565b60405180910390f35b3480156100cb57600080fd5b506100d46103f0565b6040516100e19190610985565b60405180910390f35b3480156100f657600080fd5b506100ff610416565b60405161010c91906109a0565b60405180910390f35b600160009054906101000a900473ffffffffffffffffffffffffffffffffffffffff1673ffffffffffffffffffffffffffffffffffffffff163373ffffffffffffffffffffffffffffffffffffffff16146101a5576040517f08c379a000000000000000000000000000000000000000000000000000000000815260040161019c906109c2565b60405180910390fd5b8060008190555050565b6101b761057b565b8381600001819052508281604001818152505081816060018181525050600054603c83850381610210577f4e487b7100000000000000000000000000000000000000000000000000000000600052601260045260246000fd5b04028160800181815250508060800151341015610262576040517f08c379a000000000000000000000000000000000000000000000000000000000815260040161025990610a02565b60405180910390fd5b6000600160009054906101000a900473ffffffffffffffffffffffffffffffffffffffff1673ffffffffffffffffffffffffffffffffffffffff16346040516102aa90610970565b60006040518083038185875af1925050503d80600081146102e7576040519150601f19603f3d011682016040523d82523d6000602084013e6102ec565b606091505b5050905080610330576040517f08c379a0000000000000000000000000000000000000000000000000000000008152600401610327906109e2565b60405180910390fd5b600282908060018154018082558091505060019003906000526020600020906005020160009091909190915060008201518160000190805190602001906103789291906105c0565b5060208201518160010160006101000a81548173ffffffffffffffffffffffffffffffffffffffff021916908373ffffffffffffffffffffffffffffffffffffffff16021790555060408201518160020155606082015181600301556080820151816004015550505050505050565b60008054905090565b600160009054906101000a900473ffffffffffffffffffffffffffffffffffffffff1681565b60606002805480602002602001604051908101604052809291908181526020016000905b8282101561057257838290600052602060002090600502016040518060a001604052908160008201805461046d90610b94565b80601f016020809104026020016040519081016040528092919081815260200182805461049990610b94565b80156104e65780601f106104bb576101008083540402835291602001916104e6565b820191906000526020600020905b8154815290600101906020018083116104c957829003601f168201915b505050505081526020016001820160009054906101000a900473ffffffffffffffffffffffffffffffffffffffff1673ffffffffffffffffffffffffffffffffffffffff1673ffffffffffffffffffffffffffffffffffffffff16815260200160028201548152602001600382015481526020016004820154815250508152602001906001019061043a565b50505050905090565b6040518060a0016040528060608152602001600073ffffffffffffffffffffffffffffffffffffffff1681526020016000815260200160008152602001600081525090565b8280546105cc90610b94565b90600052602060002090601f0160209004810192826105ee5760008555610635565b82601f1061060757805160ff1916838001178555610635565b82800160010185558215610635579182015b82811115610634578251825591602001919060010190610619565b5b5090506106429190610646565b5090565b5b8082111561065f576000816000905550600101610647565b5090565b600061067661067184610a62565b610a3d565b90508281526020810184848401111561068e57600080fd5b610699848285610b52565b509392505050565b600082601f8301126106b257600080fd5b81356106c2848260208601610663565b91505092915050565b6000813590506106da81610d0a565b92915050565b6000806000606084860312156106f557600080fd5b600084013567ffffffffffffffff81111561070f57600080fd5b61071b868287016106a1565b935050602061072c868287016106cb565b925050604061073d868287016106cb565b9150509250925092565b60006020828403121561075957600080fd5b6000610767848285016106cb565b91505092915050565b600061077c83836108dc565b905092915050565b61078d81610b16565b82525050565b61079c81610b04565b82525050565b60006107ad82610aa3565b6107b78185610ac6565b9350836020820285016107c985610a93565b8060005b8581101561080557848403895281516107e68582610770565b94506107f183610ab9565b925060208a019950506001810190506107cd565b50829750879550505050505092915050565b600061082282610aae565b61082c8185610ae2565b935061083c818560208601610b61565b61084581610c55565b840191505092915050565b600061085d602c83610af3565b915061086882610c66565b604082019050919050565b6000610880601283610af3565b915061088b82610cb5565b602082019050919050565b60006108a3600083610ad7565b91506108ae82610cde565b600082019050919050565b60006108c6601083610af3565b91506108d182610ce1565b602082019050919050565b600060a08301600083015184820360008601526108f98282610817565b915050602083015161090e6020860182610793565b5060408301516109216040860182610952565b5060608301516109346060860182610952565b5060808301516109476080860182610952565b508091505092915050565b61095b81610b48565b82525050565b61096a81610b48565b82525050565b600061097b82610896565b9150819050919050565b600060208201905061099a6000830184610784565b92915050565b600060208201905081810360008301526109ba81846107a2565b905092915050565b600060208201905081810360008301526109db81610850565b9050919050565b600060208201905081810360008301526109fb81610873565b9050919050565b60006020820190508181036000830152610a1b816108b9565b9050919050565b6000602082019050610a376000830184610961565b92915050565b6000610a47610a58565b9050610a538282610bc6565b919050565b6000604051905090565b600067ffffffffffffffff821115610a7d57610a7c610c26565b5b610a8682610c55565b9050602081019050919050565b6000819050602082019050919050565b600081519050919050565b600081519050919050565b6000602082019050919050565b600082825260208201905092915050565b600081905092915050565b600082825260208201905092915050565b600082825260208201905092915050565b6000610b0f82610b28565b9050919050565b6000610b2182610b28565b9050919050565b600073ffffffffffffffffffffffffffffffffffffffff82169050919050565b6000819050919050565b82818337600083830152505050565b60005b83811015610b7f578082015181840152602081019050610b64565b83811115610b8e576000848401525b50505050565b60006002820490506001821680610bac57607f821691505b60208210811415610bc057610bbf610bf7565b5b50919050565b610bcf82610c55565b810181811067ffffffffffffffff82111715610bee57610bed610c26565b5b80604052505050565b7f4e487b7100000000000000000000000000000000000000000000000000000000600052602260045260246000fd5b7f4e487b7100000000000000000000000000000000000000000000000000000000600052604160045260246000fd5b6000601f19601f8301169050919050565b7f4f6e6c7920746865206f776e65722077686f2063616e20736574202861646a7560008201527f7374292074686520726174650000000000000000000000000000000000000000602082015250565b7f4661696c656420746f2073656e64206574680000000000000000000000000000600082015250565b50565b7f4974206e656564206d6f72652065746800000000000000000000000000000000600082015250565b610d1381610b48565b8114610d1e57600080fd5b5056fea264697066735822122099275b207f772b7e513a83674d5f21d60b0b38c71cf90f0815a66dc38b74cbd964736f6c63430008040033",
  "linkReferences": {},
  "deployedLinkReferences": {}
}